:10095800003F0006005B004F0066006D007D000749
:04096800007F006F9D
:1008F60078087C007D007BFF7A0979587E007F149A
:100906001208D0E4F51CF51DE4F51CF51DE51D25C2
:10091600E02408F808E6F5A07F327E0012093805C3
:100926001DE51D7002051CC3940AE51C940040DDFC
:0209360080D669
:10093800E4FDFCC3ED9FEC9E5015E4FAFB0BBB00F5
:0F094800010ABA03F8BBE8F50DBD00010C80E40D
:01095700227D
:0300000002096C86
:0C096C00787FE4F6D8FD75811D0208F6C6
:10080000E709F608DFFA8046E709F208DFFA803EDA
:1008100088828C83E709F0A3DFFA8032E309F608C7
:10082000DFFA8078E309F208DFFA807088828C832F
:10083000E309F0A3DFFA806489828A83E0A3F608E3
:10084000DFFA805889828A83E0A3F208DFFA804CBD
:1008500080D280FA80C680D4806980F28033801094
:1008600080A680EA809A80A880DA80E280CA8033FD
:1008700089828A83ECFAE493A3C8C582C8CCC58375
:10088000CCF0A3C8C582C8CCC583CCDFE9DEE78045
:100890000D89828A83E493A3F608DFF9ECFAA9F0C4
:1008A000EDFB2289828A83ECFAE0A3C8C582C8CC1A
:1008B000C583CCF0A3C8C582C8CCC583CCDFEADE33
:1008C000E880DB89828A83E493A3F208DFF980CC95
:1008D00088F0EF60010E4E60C388F0ED2402B4048E
:1008E0000050B9F582EB2402B4040050AF23234535
:0608F00082239008507302
:00000001FF
