:1009D700003F0006005B004F0066006D007D0007CA
:0409E700007F006F1E
:10094B0078087C007D007BFF7A0979D77E007F14C5
:10095B001208D0E4F51CF51DE4F51CF51DAE1CAF1B
:10096B001D7C007D0A1208F68C1E8D1FD2B0C2B101
:10097B00E51F1209AAAE1CAF1D7C007D0A1208F6FA
:10098B008E1E8F1FC2B0D2B1EF1209AA051DE51D35
:0F099B007002051CC39464E51C940040C080B931
:0D09AA0025E02408F808E6F5A07F147E0083
:1009B700E4FDFCC3ED9FEC9E5015E4FAFB0BBB0076
:0F09C700010ABA03F8BBE8F50DBD00010C80E48E
:0109D60022FE
:030000000209EB07
:0C09EB00787FE4F6D8FD75811F02094BEF
:10080000E709F608DFFA8046E709F208DFFA803EDA
:1008100088828C83E709F0A3DFFA8032E309F608C7
:10082000DFFA8078E309F208DFFA807088828C832F
:10083000E309F0A3DFFA806489828A83E0A3F608E3
:10084000DFFA805889828A83E0A3F208DFFA804CBD
:1008500080D280FA80C680D4806980F28033801094
:1008600080A680EA809A80A880DA80E280CA8033FD
:1008700089828A83ECFAE493A3C8C582C8CCC58375
:10088000CCF0A3C8C582C8CCC583CCDFE9DEE78045
:100890000D89828A83E493A3F608DFF9ECFAA9F0C4
:1008A000EDFB2289828A83ECFAE0A3C8C582C8CC1A
:1008B000C583CCF0A3C8C582C8CCC583CCDFEADE33
:1008C000E880DB89828A83E493A3F208DFF980CC95
:1008D00088F0EF60010E4E60C388F0ED2402B4048E
:1008E0000050B9F582EB2402B4040050AF23234535
:0608F00082239008507302
:1008F600BC000BBE0029EF8DF084FFADF022E4CCE6
:10090600F875F008EF2FFFEE33FEEC33FCEE9DECAE
:10091600984005FCEE9DFE0FD5F0E9E4CEFD22EDF4
:10092600F8F5F0EE8420D21CFEADF075F008EF2F3E
:10093600FFED33FD4007985006D5F0F222C398FD2F
:050946000FD5F0EA22CC
:00000001FF
